{
  "contractName": "Auction",
  "abi": [
    {
      "constant": true,
      "inputs": [],
      "name": "idAuction",
      "outputs": [
        {
          "name": "",
          "type": "uint256"
        }
      ],
      "payable": false,
      "stateMutability": "view",
      "type": "function"
    },
    {
      "constant": true,
      "inputs": [],
      "name": "beneficiary",
      "outputs": [
        {
          "name": "",
          "type": "address"
        }
      ],
      "payable": false,
      "stateMutability": "view",
      "type": "function"
    },
    {
      "constant": true,
      "inputs": [],
      "name": "minBid",
      "outputs": [
        {
          "name": "",
          "type": "uint256"
        }
      ],
      "payable": false,
      "stateMutability": "view",
      "type": "function"
    },
    {
      "constant": true,
      "inputs": [],
      "name": "auctionStartingDate",
      "outputs": [
        {
          "name": "",
          "type": "uint256"
        }
      ],
      "payable": false,
      "stateMutability": "view",
      "type": "function"
    },
    {
      "constant": true,
      "inputs": [],
      "name": "auctionEnded",
      "outputs": [
        {
          "name": "",
          "type": "bool"
        }
      ],
      "payable": false,
      "stateMutability": "view",
      "type": "function"
    },
    {
      "constant": true,
      "inputs": [],
      "name": "auctionEndingDate",
      "outputs": [
        {
          "name": "",
          "type": "uint256"
        }
      ],
      "payable": false,
      "stateMutability": "view",
      "type": "function"
    },
    {
      "constant": true,
      "inputs": [],
      "name": "winner",
      "outputs": [
        {
          "name": "",
          "type": "address"
        }
      ],
      "payable": false,
      "stateMutability": "view",
      "type": "function"
    },
    {
      "inputs": [
        {
          "name": "_auctionStartingDate",
          "type": "uint256"
        },
        {
          "name": "_auctionEndingDate",
          "type": "uint256"
        },
        {
          "name": "_minBid",
          "type": "uint256"
        },
        {
          "name": "_idAuction",
          "type": "uint256"
        },
        {
          "name": "_beneficiary",
          "type": "address"
        }
      ],
      "payable": false,
      "stateMutability": "nonpayable",
      "type": "constructor"
    },
    {
      "constant": false,
      "inputs": [],
      "name": "bid",
      "outputs": [],
      "payable": true,
      "stateMutability": "payable",
      "type": "function"
    },
    {
      "constant": false,
      "inputs": [],
      "name": "auctionEnd",
      "outputs": [],
      "payable": false,
      "stateMutability": "nonpayable",
      "type": "function"
    }
  ],
  "bytecode": "0x608060405234801561001057600080fd5b5060405160a0806108aa833981018060405260a081101561003057600080fd5b8101908080519060200190929190805190602001909291908051906020019092919080519060200190929190805190602001909291905050508460008190555083600181905550670de0b6b3a764000083026002819055508160038190555080600460006101000a81548173ffffffffffffffffffffffffffffffffffffffff021916908373ffffffffffffffffffffffffffffffffffffffff16021790555050505050506107c6806100e46000396000f3fe6080604052600436106100865760003560e01c80633e109a19116100595780633e109a191461012e578063698bfcde146101595780638643337414610184578063d39548f5146101b3578063dfbf53ae146101de57610086565b80630f70427b1461008b5780631998aeef146100b65780632a24f46c146100c057806338af3eed146100d7575b600080fd5b34801561009757600080fd5b506100a0610235565b6040518082815260200191505060405180910390f35b6100be61023b565b005b3480156100cc57600080fd5b506100d56102e6565b005b3480156100e357600080fd5b506100ec610729565b604051808273ffffffffffffffffffffffffffffffffffffffff1673ffffffffffffffffffffffffffffffffffffffff16815260200191505060405180910390f35b34801561013a57600080fd5b5061014361074f565b6040518082815260200191505060405180910390f35b34801561016557600080fd5b5061016e610755565b6040518082815260200191505060405180910390f35b34801561019057600080fd5b5061019961075b565b604051808215151515815260200191505060405180910390f35b3480156101bf57600080fd5b506101c861076e565b6040518082815260200191505060405180910390f35b3480156101ea57600080fd5b506101f3610774565b604051808273ffffffffffffffffffffffffffffffffffffffff1673ffffffffffffffffffffffffffffffffffffffff16815260200191505060405180910390f35b60035481565b600054421015801561024f57506001544211155b801561025d57506002543410155b61026657600080fd5b336006600034815260200190815260200160002060006101000a81548173ffffffffffffffffffffffffffffffffffffffff021916908373ffffffffffffffffffffffffffffffffffffffff1602179055506007349080600181540180825580915050906001820390600052602060002001600090919290919091505550565b60015442101561035e576040517f08c379a00000000000000000000000000000000000000000000000000000000081526004018080602001828103825260198152602001807f5468652061756374696f6e20686173206e6f7420656e6465640000000000000081525060200191505060405180910390fd5b60001515600560149054906101000a900460ff161515146103e7576040517f08c379a00000000000000000000000000000000000000000000000000000000081526004018080602001828103825260158152602001807f5468652061756374696f6e2068617320656e646564000000000000000000000081525060200191505060405180910390fd5b600073ffffffffffffffffffffffffffffffffffffffff16600560009054906101000a900473ffffffffffffffffffffffffffffffffffffffff1673ffffffffffffffffffffffffffffffffffffffff16146104ab576040517f08c379a00000000000000000000000000000000000000000000000000000000081526004018080602001828103825260198152602001807f546865726520697320616c726561647920612077696e6e65720000000000000081525060200191505060405180910390fd5b600080600091505b6007805490508210156105075780600783815481106104ce57fe5b906000526020600020015411156104fa57600782815481106104ec57fe5b906000526020600020015490505b81806001019250506104b3565b6006600082815260200190815260200160002060009054906101000a900473ffffffffffffffffffffffffffffffffffffffff16600560006101000a81548173ffffffffffffffffffffffffffffffffffffffff021916908373ffffffffffffffffffffffffffffffffffffffff160217905550600091505b60078054905082101561070a57806007838154811061059b57fe5b906000526020600020015410156106765760066000600784815481106105bd57fe5b9060005260206000200154815260200190815260200160002060009054906101000a900473ffffffffffffffffffffffffffffffffffffffff1673ffffffffffffffffffffffffffffffffffffffff166108fc6007848154811061061d57fe5b90600052602060002001549081150290604051600060405180830381858888f19350505050158015610653573d6000803e3d6000fd5b5060006007838154811061066357fe5b90600052602060002001819055506106fd565b600460009054906101000a900473ffffffffffffffffffffffffffffffffffffffff1673ffffffffffffffffffffffffffffffffffffffff166108fc829081150290604051600060405180830381858888f193505050501580156106de573d6000803e3d6000fd5b506000600783815481106106ee57fe5b90600052602060002001819055505b8180600101925050610580565b6001600560146101000a81548160ff0219169083151502179055505050565b600460009054906101000a900473ffffffffffffffffffffffffffffffffffffffff1681565b60025481565b60005481565b600560149054906101000a900460ff1681565b60015481565b600560009054906101000a900473ffffffffffffffffffffffffffffffffffffffff168156fea165627a7a72305820ef26e37a32c093190d3e9f9e763bc04203aaba590740b20e73db84a2ea1200b00029",
  "source": "pragma solidity >=0.4.22 <0.6.0;\ncontract Auction{\n    //Mejor no usarlo porque cuesta y realmente no es necesario, empieza cuando ejecutas el contrato en la blockchain\n    //=> Mejor ponerla porque asi lo subes y automaticamente comienza\n\n    uint public auctionStartingDate; //Variable que indica el momento inicial en el que se permiten pujas\n    uint public auctionEndingDate; //Variable que indica el momento final en el que ya no se admiten pujas\n    uint public minBid; //Puja minima\n    uint public idAuction; //Id de la subasta, suponiendo que habra varias\n    address payable public beneficiary; //Beneficiario\n    address public winner;\n    bool public auctionEnded;\n    //La idea es obtener la bid mas alta del array y obtener la direccion del mapping...\n    //La otra opcion es hacer una variable con puja maxima e ir modificandola o no (creo que es mas eficiente).\n    //Puedes hacerlo de las dos maneras y comparar, y ponerlo en el TFM como has ido viendo el coste.\n    mapping(uint => address payable) bidsAddresses;\n    uint[] bids;\n    //Se podría ahorrar haciendo dos maps, uno de address => bid y otro de address => bidTime\n    /*struct bidder{\n        address public bidderAddress; //cuenta del pujante\n        uint public bid; //Puja del pujante\n        uint public bidTime; //Momento en el que se realiza la puja\n    }*/\n    \n    //bidder[] auctionBidders; //Array en el que se introducen todos los pujantes\n\n    //Events of the contract\n    //Execution of the auction\n\n    constructor(uint _auctionStartingDate, uint _auctionEndingDate, uint _minBid, uint _idAuction, address payable _beneficiary) public {\n        //Determinamos todos estos datos al crear el contrato\n        auctionStartingDate = _auctionStartingDate;\n        auctionEndingDate = _auctionEndingDate;\n        minBid = _minBid * 1e18;\n        idAuction = _idAuction;\n        beneficiary = _beneficiary;\n    }\n\n    function bid() public payable{\n        require(now >= auctionStartingDate && now <= auctionEndingDate && msg.value >= minBid);\n\n        bidsAddresses[msg.value] = msg.sender;\n        bids.push(msg.value);\n\n\n\n    }\n\n    function auctionEnd() public {\n        require(now >= auctionEndingDate, \"The auction has not ended\");\n        require(auctionEnded == false, \"The auction has ended\");\n        require(winner == address(0), \"There is already a winner\");\n        //Getting the winner\n        //ITERAR AHORA SOBRE EL ARRAY DE BIDS Y OBTENER EL MAXIMO, Y SACAR LA ADDRESS.\n        //Hacerlo luego con la modificacion de las variables e implementar zk-snarks.\n        uint i;\n        uint largest;\n        \n        for(i = 0; i < bids.length; i++){\n            if(bids[i] > largest){\n                largest = bids[i];\n            }\n        }\n\n        winner = bidsAddresses[largest];\n        for(i = 0; i < bids.length; i++){\n            if(bids[i] < largest){\n                bidsAddresses[bids[i]].transfer(bids[i]);\n                bids[i] = 0;\n            }else{\n                beneficiary.transfer(largest);\n                bids[i] = 0;\n            }\n        }\n        auctionEnded = true;\n\n    }\n\n    \n\n}",
  "sourcePath": "/home/eloy/Documents/Auctions-zk-SNARKS/contracts/auction.sol",
  "compiler": {
    "name": "solc",
    "version": "0.5.8+commit.23d335f2.Emscripten.clang"
  },
  "schemaVersion": "3.0.10",
  "updatedAt": "2019-06-18T06:58:59.331Z",
  "devdoc": {
    "methods": {}
  },
  "userdoc": {
    "methods": {}
  }
}