{
  "contractName": "Auction",
  "abi": [
    {
      "constant": true,
      "inputs": [],
      "name": "biggestBid",
      "outputs": [
        {
          "name": "",
          "type": "uint256"
        }
      ],
      "payable": false,
      "stateMutability": "view",
      "type": "function",
      "signature": "0x090bcedf"
    },
    {
      "constant": true,
      "inputs": [],
      "name": "idAuction",
      "outputs": [
        {
          "name": "",
          "type": "uint256"
        }
      ],
      "payable": false,
      "stateMutability": "view",
      "type": "function",
      "signature": "0x0f70427b"
    },
    {
      "constant": true,
      "inputs": [],
      "name": "beneficiary",
      "outputs": [
        {
          "name": "",
          "type": "address"
        }
      ],
      "payable": false,
      "stateMutability": "view",
      "type": "function",
      "signature": "0x38af3eed"
    },
    {
      "constant": true,
      "inputs": [],
      "name": "minBid",
      "outputs": [
        {
          "name": "",
          "type": "uint256"
        }
      ],
      "payable": false,
      "stateMutability": "view",
      "type": "function",
      "signature": "0x3e109a19"
    },
    {
      "constant": true,
      "inputs": [
        {
          "name": "",
          "type": "uint256"
        }
      ],
      "name": "bids",
      "outputs": [
        {
          "name": "",
          "type": "bytes32"
        }
      ],
      "payable": false,
      "stateMutability": "view",
      "type": "function",
      "signature": "0x4423c5f1"
    },
    {
      "constant": true,
      "inputs": [],
      "name": "auctioneer",
      "outputs": [
        {
          "name": "",
          "type": "address"
        }
      ],
      "payable": false,
      "stateMutability": "view",
      "type": "function",
      "signature": "0x5ec2c7bf"
    },
    {
      "constant": true,
      "inputs": [],
      "name": "auctionStartingDate",
      "outputs": [
        {
          "name": "",
          "type": "uint256"
        }
      ],
      "payable": false,
      "stateMutability": "view",
      "type": "function",
      "signature": "0x698bfcde"
    },
    {
      "constant": true,
      "inputs": [],
      "name": "auctionEnded",
      "outputs": [
        {
          "name": "",
          "type": "bool"
        }
      ],
      "payable": false,
      "stateMutability": "view",
      "type": "function",
      "signature": "0x86433374"
    },
    {
      "constant": true,
      "inputs": [],
      "name": "provingBidsEndingDate",
      "outputs": [
        {
          "name": "",
          "type": "uint256"
        }
      ],
      "payable": false,
      "stateMutability": "view",
      "type": "function",
      "signature": "0x9a2baa47"
    },
    {
      "constant": true,
      "inputs": [
        {
          "name": "",
          "type": "uint256"
        }
      ],
      "name": "bidAmounts",
      "outputs": [
        {
          "name": "",
          "type": "string"
        }
      ],
      "payable": false,
      "stateMutability": "view",
      "type": "function",
      "signature": "0xa754807a"
    },
    {
      "constant": true,
      "inputs": [],
      "name": "verifierContractZoKrates",
      "outputs": [
        {
          "name": "",
          "type": "address"
        }
      ],
      "payable": false,
      "stateMutability": "view",
      "type": "function",
      "signature": "0xb9130ae1"
    },
    {
      "constant": true,
      "inputs": [],
      "name": "auctionEndingDate",
      "outputs": [
        {
          "name": "",
          "type": "uint256"
        }
      ],
      "payable": false,
      "stateMutability": "view",
      "type": "function",
      "signature": "0xd39548f5"
    },
    {
      "constant": true,
      "inputs": [],
      "name": "winner",
      "outputs": [
        {
          "name": "",
          "type": "address"
        }
      ],
      "payable": false,
      "stateMutability": "view",
      "type": "function",
      "signature": "0xdfbf53ae"
    },
    {
      "constant": true,
      "inputs": [
        {
          "name": "",
          "type": "uint256"
        },
        {
          "name": "",
          "type": "uint256"
        }
      ],
      "name": "hashZokratesBids",
      "outputs": [
        {
          "name": "",
          "type": "string"
        }
      ],
      "payable": false,
      "stateMutability": "view",
      "type": "function",
      "signature": "0xe03dbd23"
    },
    {
      "constant": true,
      "inputs": [],
      "name": "numberOfBidders",
      "outputs": [
        {
          "name": "",
          "type": "uint256"
        }
      ],
      "payable": false,
      "stateMutability": "view",
      "type": "function",
      "signature": "0xefbf6e0b"
    },
    {
      "constant": true,
      "inputs": [],
      "name": "provingBidsStartingDate",
      "outputs": [
        {
          "name": "",
          "type": "uint256"
        }
      ],
      "payable": false,
      "stateMutability": "view",
      "type": "function",
      "signature": "0xf7aeea67"
    },
    {
      "inputs": [
        {
          "name": "_auctionStartingDate",
          "type": "uint256"
        },
        {
          "name": "_auctionEndingDate",
          "type": "uint256"
        },
        {
          "name": "_minBid",
          "type": "uint256"
        },
        {
          "name": "_idAuction",
          "type": "uint256"
        },
        {
          "name": "_numberOfBidders",
          "type": "uint256"
        },
        {
          "name": "_beneficiary",
          "type": "address"
        },
        {
          "name": "_auctioneer",
          "type": "address"
        },
        {
          "name": "_verifierContractAddress",
          "type": "address"
        }
      ],
      "payable": false,
      "stateMutability": "nonpayable",
      "type": "constructor",
      "signature": "constructor"
    },
    {
      "anonymous": false,
      "inputs": [
        {
          "indexed": false,
          "name": "positionEvent",
          "type": "uint256"
        }
      ],
      "name": "resultPosition",
      "type": "event",
      "signature": "0x5db61dab4920b1ad1c70c99b3da7b167aed629c71fcccbf85ab0f3a6788e566a"
    },
    {
      "anonymous": false,
      "inputs": [
        {
          "indexed": false,
          "name": "winnerEvent",
          "type": "uint256"
        }
      ],
      "name": "resultWinner",
      "type": "event",
      "signature": "0x6b192c3df37fa001f8e15ad521d5bf1781105acd7c760f6a54eb0b0d344ee6ad"
    },
    {
      "constant": false,
      "inputs": [
        {
          "name": "hashedEncryptedBid",
          "type": "bytes32"
        }
      ],
      "name": "bid",
      "outputs": [],
      "payable": true,
      "stateMutability": "payable",
      "type": "function",
      "signature": "0x957bb1e0"
    },
    {
      "constant": true,
      "inputs": [
        {
          "name": "encrypted",
          "type": "string"
        },
        {
          "name": "hashZokrates1",
          "type": "string"
        },
        {
          "name": "hashZokrates2",
          "type": "string"
        }
      ],
      "name": "keccak256Hash",
      "outputs": [
        {
          "name": "hashSolidity",
          "type": "bytes32"
        }
      ],
      "payable": false,
      "stateMutability": "pure",
      "type": "function",
      "signature": "0xfe72bb49"
    },
    {
      "constant": false,
      "inputs": [
        {
          "name": "bidHashedSent",
          "type": "bytes32"
        },
        {
          "name": "encryptedBid",
          "type": "string"
        },
        {
          "name": "hashZokrates1",
          "type": "string"
        },
        {
          "name": "hashZokrates2",
          "type": "string"
        }
      ],
      "name": "bidProver",
      "outputs": [],
      "payable": true,
      "stateMutability": "payable",
      "type": "function",
      "signature": "0x36429c3d"
    },
    {
      "constant": false,
      "inputs": [
        {
          "name": "a",
          "type": "uint256[2]"
        },
        {
          "name": "b",
          "type": "uint256[2][2]"
        },
        {
          "name": "c",
          "type": "uint256[2]"
        },
        {
          "name": "input",
          "type": "uint256[14]"
        }
      ],
      "name": "auctionEnd",
      "outputs": [
        {
          "name": "position",
          "type": "uint256"
        },
        {
          "name": "highestBid",
          "type": "uint256"
        }
      ],
      "payable": true,
      "stateMutability": "payable",
      "type": "function",
      "signature": "0xda2d806a"
    },
    {
      "constant": false,
      "inputs": [],
      "name": "returnSignals",
      "outputs": [],
      "payable": true,
      "stateMutability": "payable",
      "type": "function",
      "signature": "0xf2fa51b8"
    },
    {
      "constant": false,
      "inputs": [
        {
          "name": "position",
          "type": "uint256"
        },
        {
          "name": "highestBid",
          "type": "uint256"
        }
      ],
      "name": "paymentOperations",
      "outputs": [],
      "payable": true,
      "stateMutability": "payable",
      "type": "function",
      "signature": "0xe6abfc20"
    },
    {
      "constant": false,
      "inputs": [
        {
          "name": "i",
          "type": "uint256"
        }
      ],
      "name": "getBids",
      "outputs": [
        {
          "name": "position",
          "type": "bytes32"
        }
      ],
      "payable": false,
      "stateMutability": "nonpayable",
      "type": "function",
      "signature": "0x131d9a27"
    },
    {
      "constant": false,
      "inputs": [
        {
          "name": "i",
          "type": "uint256"
        }
      ],
      "name": "getBidAmounts",
      "outputs": [
        {
          "name": "encryptedAmount",
          "type": "string"
        }
      ],
      "payable": false,
      "stateMutability": "nonpayable",
      "type": "function",
      "signature": "0x08b3711f"
    },
    {
      "constant": false,
      "inputs": [
        {
          "name": "i",
          "type": "uint256"
        }
      ],
      "name": "getHashesZokrates",
      "outputs": [
        {
          "name": "hashZok1",
          "type": "string"
        },
        {
          "name": "hashZok2",
          "type": "string"
        }
      ],
      "payable": false,
      "stateMutability": "nonpayable",
      "type": "function",
      "signature": "0xede04b49"
    },
    {
      "constant": false,
      "inputs": [],
      "name": "getBiggestBid",
      "outputs": [
        {
          "name": "winnerBid",
          "type": "uint256"
        }
      ],
      "payable": false,
      "stateMutability": "nonpayable",
      "type": "function",
      "signature": "0xed519a92"
    }
  ],
  "bytecode": "0x608060405234801561001057600080fd5b506040516101008061246d833981018060405261010081101561003257600080fd5b810190808051906020019092919080519060200190929190805190602001909291908051906020019092919080519060200190929190805190602001909291908051906020019092919080519060200190929190505050876001819055508660028190555061025888016003819055506102588701600481905550670de0b6b3a764000086026005819055508460068190555082600860006101000a81548173ffffffffffffffffffffffffffffffffffffffff021916908373ffffffffffffffffffffffffffffffffffffffff16021790555081600960006101000a81548173ffffffffffffffffffffffffffffffffffffffff021916908373ffffffffffffffffffffffffffffffffffffffff16021790555083600781905550806000806101000a81548173ffffffffffffffffffffffffffffffffffffffff021916908373ffffffffffffffffffffffffffffffffffffffff16021790555050505050505050506122c8806101a56000396000f3fe608060405260043610610154576000357c0100000000000000000000000000000000000000000000000000000000900463ffffffff16806308b3711f14610159578063090bcedf1461020d5780630f70427b14610238578063131d9a271461026357806336429c3d146102b257806338af3eed146104a55780633e109a19146104fc5780634423c5f1146105275780635ec2c7bf14610576578063698bfcde146105cd57806386433374146105f8578063957bb1e0146106275780639a2baa4714610655578063a754807a14610680578063b9130ae114610734578063d39548f51461078b578063da2d806a146107b6578063dfbf53ae14610933578063e03dbd231461098a578063e6abfc2014610a48578063ed519a9214610a80578063ede04b4914610aab578063efbf6e0b14610bcb578063f2fa51b814610bf6578063f7aeea6714610c00578063fe72bb4914610c2b575b600080fd5b34801561016557600080fd5b506101926004803603602081101561017c57600080fd5b8101908080359060200190929190505050610e35565b6040518080602001828103825283818151815260200191508051906020019080838360005b838110156101d25780820151818401526020810190506101b7565b50505050905090810190601f1680156101ff5780820380516001836020036101000a031916815260200191505b509250505060405180910390f35b34801561021957600080fd5b50610222610ef0565b6040518082815260200191505060405180910390f35b34801561024457600080fd5b5061024d610ef6565b6040518082815260200191505060405180910390f35b34801561026f57600080fd5b5061029c6004803603602081101561028657600080fd5b8101908080359060200190929190505050610efc565b6040518082815260200191505060405180910390f35b6104a3600480360360808110156102c857600080fd5b8101908080359060200190929190803590602001906401000000008111156102ef57600080fd5b82018360208201111561030157600080fd5b8035906020019184600183028401116401000000008311171561032357600080fd5b91908080601f016020809104026020016040519081016040528093929190818152602001838380828437600081840152601f19601f8201169050808301925050505050505091929192908035906020019064010000000081111561038657600080fd5b82018360208201111561039857600080fd5b803590602001918460018302840111640100000000831117156103ba57600080fd5b91908080601f016020809104026020016040519081016040528093929190818152602001838380828437600081840152601f19601f8201169050808301925050505050505091929192908035906020019064010000000081111561041d57600080fd5b82018360208201111561042f57600080fd5b8035906020019184600183028401116401000000008311171561045157600080fd5b91908080601f016020809104026020016040519081016040528093929190818152602001838380828437600081840152601f19601f820116905080830192505050505050509192919290505050610f1f565b005b3480156104b157600080fd5b506104ba611191565b604051808273ffffffffffffffffffffffffffffffffffffffff1673ffffffffffffffffffffffffffffffffffffffff16815260200191505060405180910390f35b34801561050857600080fd5b506105116111b7565b6040518082815260200191505060405180910390f35b34801561053357600080fd5b506105606004803603602081101561054a57600080fd5b81019080803590602001909291905050506111bd565b6040518082815260200191505060405180910390f35b34801561058257600080fd5b5061058b6111e0565b604051808273ffffffffffffffffffffffffffffffffffffffff1673ffffffffffffffffffffffffffffffffffffffff16815260200191505060405180910390f35b3480156105d957600080fd5b506105e2611206565b6040518082815260200191505060405180910390f35b34801561060457600080fd5b5061060d61120c565b604051808215151515815260200191505060405180910390f35b6106536004803603602081101561063d57600080fd5b810190808035906020019092919050505061121f565b005b34801561066157600080fd5b5061066a611461565b6040518082815260200191505060405180910390f35b34801561068c57600080fd5b506106b9600480360360208110156106a357600080fd5b8101908080359060200190929190505050611467565b6040518080602001828103825283818151815260200191508051906020019080838360005b838110156106f95780820151818401526020810190506106de565b50505050905090810190601f1680156107265780820380516001836020036101000a031916815260200191505b509250505060405180910390f35b34801561074057600080fd5b50610749611522565b604051808273ffffffffffffffffffffffffffffffffffffffff1673ffffffffffffffffffffffffffffffffffffffff16815260200191505060405180910390f35b34801561079757600080fd5b506107a0611547565b6040518082815260200191505060405180910390f35b61091660048036036102c08110156107cd57600080fd5b8101908080604001906002806020026040519081016040528092919082600260200280828437600081840152601f19601f82011690508083019250505050505091929192908060800190600280602002604051908101604052809291906000905b82821015610882578382604002016002806020026040519081016040528092919082600260200280828437600081840152601f19601f8201169050808301925050505050508152602001906001019061082e565b50505050919291929080604001906002806020026040519081016040528092919082600260200280828437600081840152601f19601f8201169050808301925050505050509192919290806101c00190600e806020026040519081016040528092919082600e60200280828437600081840152601f19601f820116905080830192505050505050919291929050505061154d565b604051808381526020018281526020019250505060405180910390f35b34801561093f57600080fd5b50610948611852565b604051808273ffffffffffffffffffffffffffffffffffffffff1673ffffffffffffffffffffffffffffffffffffffff16815260200191505060405180910390f35b34801561099657600080fd5b506109cd600480360360408110156109ad57600080fd5b810190808035906020019092919080359060200190929190505050611878565b6040518080602001828103825283818151815260200191508051906020019080838360005b83811015610a0d5780820151818401526020810190506109f2565b50505050905090810190601f168015610a3a5780820380516001836020036101000a031916815260200191505b509250505060405180910390f35b610a7e60048036036040811015610a5e57600080fd5b810190808035906020019092919080359060200190929190505050611946565b005b348015610a8c57600080fd5b50610a95611c8e565b6040518082815260200191505060405180910390f35b348015610ab757600080fd5b50610ae460048036036020811015610ace57600080fd5b8101908080359060200190929190505050611c98565b604051808060200180602001838103835285818151815260200191508051906020019080838360005b83811015610b28578082015181840152602081019050610b0d565b50505050905090810190601f168015610b555780820380516001836020036101000a031916815260200191505b50838103825284818151815260200191508051906020019080838360005b83811015610b8e578082015181840152602081019050610b73565b50505050905090810190601f168015610bbb5780820380516001836020036101000a031916815260200191505b5094505050505060405180910390f35b348015610bd757600080fd5b50610be0611e34565b6040518082815260200191505060405180910390f35b610bfe611e3a565b005b348015610c0c57600080fd5b50610c15611f39565b6040518082815260200191505060405180910390f35b348015610c3757600080fd5b50610e1f60048036036060811015610c4e57600080fd5b8101908080359060200190640100000000811115610c6b57600080fd5b820183602082011115610c7d57600080fd5b80359060200191846001830284011164010000000083111715610c9f57600080fd5b91908080601f016020809104026020016040519081016040528093929190818152602001838380828437600081840152601f19601f82011690508083019250505050505050919291929080359060200190640100000000811115610d0257600080fd5b820183602082011115610d1457600080fd5b80359060200191846001830284011164010000000083111715610d3657600080fd5b91908080601f016020809104026020016040519081016040528093929190818152602001838380828437600081840152601f19601f82011690508083019250505050505050919291929080359060200190640100000000811115610d9957600080fd5b820183602082011115610dab57600080fd5b80359060200191846001830284011164010000000083111715610dcd57600080fd5b91908080601f016020809104026020016040519081016040528093929190818152602001838380828437600081840152601f19601f820116905080830192505050505050509192919290505050611f3f565b6040518082815260200191505060405180910390f35b6060600d82815481101515610e4657fe5b906000526020600020018054600181600116156101000203166002900480601f016020809104026020016040519081016040528092919081815260200182805460018160011615610100020316600290048015610ee45780601f10610eb957610100808354040283529160200191610ee4565b820191906000526020600020905b815481529060010190602001808311610ec757829003601f168201915b50505050509050919050565b600f5481565b60065481565b6000600c82815481101515610f0d57fe5b90600052602060002001549050919050565b60008090505b600c8054905081101561118a5784600c82815481101515610f4257fe5b9060005260206000200154141561117d57610f5e848484611f3f565b85141515611020576040517f08c379a000000000000000000000000000000000000000000000000000000000815260040180806020018281038252604f8152602001807f54686520686173686564206269642073656e7420646f6573206e6f7420636f7281526020017f726573706f6e6420746f2068617368206f66207468652076616c75657320796f81526020017f75206172652070726f766964696e67000000000000000000000000000000000081525060600191505060405180910390fd5b600d84908060018154018082558091505090600182039060005260206000200160009091929091909150908051906020019061105d9291906120b0565b5050600e604080519081016040528085815260200184815250908060018154018082558091505090600182039060005260206000209060020201600090919290919091509060026110af929190612130565b505033600b856040518082805190602001908083835b6020831015156110ea57805182526020820191506020810190506020830392506110c5565b6001836020036101000a038019825116818451168082178552505050505050905001915050908152602001604051809103902060006101000a81548173ffffffffffffffffffffffffffffffffffffffff021916908373ffffffffffffffffffffffffffffffffffffffff160217905550600c8181548110151561116a57fe5b906000526020600020016000905561118a565b8080600101915050610f25565b5050505050565b600860009054906101000a900473ffffffffffffffffffffffffffffffffffffffff1681565b60055481565b600c818154811015156111cc57fe5b906000526020600020016000915090505481565b600960009054906101000a900473ffffffffffffffffffffffffffffffffffffffff1681565b60015481565b600a60149054906101000a900460ff1681565b600960009054906101000a900473ffffffffffffffffffffffffffffffffffffffff1673ffffffffffffffffffffffffffffffffffffffff163373ffffffffffffffffffffffffffffffffffffffff16141515156112e5576040517f08c379a00000000000000000000000000000000000000000000000000000000081526004018080602001828103825260138152602001807f41756374696f6e6565722063616e74206269640000000000000000000000000081525060200191505060405180910390fd5b60015442101580156112f957506002544211155b1515611393576040517f08c379a000000000000000000000000000000000000000000000000000000000815260040180806020018281038252602a8152602001807f596f75206f6e6c792063616e2062696420647572696e6720746865206269646481526020017f696e6720706572696f640000000000000000000000000000000000000000000081525060400191505060405180910390fd5b60055434141515611432576040517f08c379a00000000000000000000000000000000000000000000000000000000081526004018080602001828103825260228152602001807f596f75206861766520746f20706179207369676e616c20666f7220626964646981526020017f6e6700000000000000000000000000000000000000000000000000000000000081525060400191505060405180910390fd5b600c81908060018154018082558091505090600182039060005260206000200160009091929091909150555050565b60045481565b600d8181548110151561147657fe5b906000526020600020016000915090508054600181600116156101000203166002900480601f01602080910402602001604051908101604052809291908181526020018280546001816001161561010002031660029004801561151a5780601f106114ef5761010080835404028352916020019161151a565b820191906000526020600020905b8154815290600101906020018083116114fd57829003601f168201915b505050505081565b6000809054906101000a900473ffffffffffffffffffffffffffffffffffffffff1681565b60025481565b60008060008060009054906101000a900473ffffffffffffffffffffffffffffffffffffffff1673ffffffffffffffffffffffffffffffffffffffff16623763d5888888886040518563ffffffff167c01000000000000000000000000000000000000000000000000000000000281526004018085600260200280838360005b838110156115e85780820151818401526020810190506115cd565b505050509050018460026000925b8184101561163c5782846020020151600260200280838360005b8381101561162b578082015181840152602081019050611610565b5050505090500192600101926115f6565b9250505083600260200280838360005b8381101561166757808201518184015260208101905061164c565b5050505090500182600e60200280838360005b8381101561169557808201518184015260208101905061167a565b50505050905001945050505050602060405180830381600087803b1580156116bc57600080fd5b505af11580156116d0573d6000803e3d6000fd5b505050506040513d60208110156116e657600080fd5b8101908080519060200190929190505050905080151561176e576040517f08c379a000000000000000000000000000000000000000000000000000000000815260040180806020018281038252600f8152602001807f496e636f72726563742070726f6f66000000000000000000000000000000000081525060200191505060405180910390fd5b7f5db61dab4920b1ad1c70c99b3da7b167aed629c71fcccbf85ab0f3a6788e566a84600c600e8110151561179e57fe5b60200201516040518082815260200191505060405180910390a17f6b192c3df37fa001f8e15ad521d5bf1781105acd7c760f6a54eb0b0d344ee6ad84600d600e811015156117e857fe5b60200201516040518082815260200191505060405180910390a1836008600e8110151561181157fe5b6020020151600f8190555083600c600e8110151561182b57fe5b602002015184600d600e8110151561183f57fe5b6020020151925092505094509492505050565b600a60009054906101000a900473ffffffffffffffffffffffffffffffffffffffff1681565b600e8281548110151561188757fe5b9060005260206000209060020201816002811015156118a257fe5b01600091509150508054600181600116156101000203166002900480601f01602080910402602001604051908101604052809291908181526020018280546001816001161561010002031660029004801561193e5780601f106119135761010080835404028352916020019161193e565b820191906000526020600020905b81548152906001019060200180831161192157829003601f168201915b505050505081565b600b600d8381548110151561195757fe5b9060005260206000200160405180828054600181600116156101000203166002900480156119bc5780601f1061199a5761010080835404028352918201916119bc565b820191906000526020600020905b8154815290600101906020018083116119a8575b5050915050908152602001604051809103902060009054906101000a900473ffffffffffffffffffffffffffffffffffffffff1673ffffffffffffffffffffffffffffffffffffffff163373ffffffffffffffffffffffffffffffffffffffff16141515611ab8576040517f08c379a000000000000000000000000000000000000000000000000000000000815260040180806020018281038252603f8152602001807f596f752061726520747279696e6720746f2063616c6c20746869732066756e6381526020017f74696f6e2062757420796f7520617265206e6f74207468652077696e6e65720081525060400191505060405180910390fd5b8034141515611b55576040517f08c379a000000000000000000000000000000000000000000000000000000000815260040180806020018281038252603f8152602001807f596f75206861766520746f20706179207468652062696420796f752070726f6d81526020017f6973656420666f72206f627461696e696e6720796f75722070726f666974730081525060400191505060405180910390fd5b60001515600a60149054906101000a900460ff161515141515611c06576040517f08c379a000000000000000000000000000000000000000000000000000000000815260040180806020018281038252603c8152602001807f5468652061756374696f6e2068617320616c726561647920656e64656420616e81526020017f64207468652070726f6669747320617265206265696e672073656e740000000081525060400191505060405180910390fd5b600860009054906101000a900473ffffffffffffffffffffffffffffffffffffffff1673ffffffffffffffffffffffffffffffffffffffff166108fc349081150290604051600060405180830381858888f19350505050158015611c6e573d6000803e3d6000fd5b506001600a60146101000a81548160ff0219169083151502179055505050565b6000600f54905090565b606080600e83815481101515611caa57fe5b90600052602060002090600202016000600281101515611cc657fe5b01600e84815481101515611cd657fe5b90600052602060002090600202016001600281101515611cf257fe5b01818054600181600116156101000203166002900480601f016020809104026020016040519081016040528092919081815260200182805460018160011615610100020316600290048015611d885780601f10611d5d57610100808354040283529160200191611d88565b820191906000526020600020905b815481529060010190602001808311611d6b57829003601f168201915b50505050509150808054600181600116156101000203166002900480601f016020809104026020016040519081016040528092919081815260200182805460018160011615610100020316600290048015611e245780601f10611df957610100808354040283529160200191611e24565b820191906000526020600020905b815481529060010190602001808311611e0757829003601f168201915b5050505050905091509150915091565b60075481565b60008090505b600d80549050811015611f3657600b611e5882610e35565b6040518082805190602001908083835b602083101515611e8d5780518252602082019150602081019050602083039250611e68565b6001836020036101000a038019825116818451168082178552505050505050905001915050908152602001604051809103902060009054906101000a900473ffffffffffffffffffffffffffffffffffffffff1673ffffffffffffffffffffffffffffffffffffffff166108fc6005549081150290604051600060405180830381858888f19350505050158015611f28573d6000803e3d6000fd5b508080600101915050611e40565b50565b60035481565b600083838360405160200180806020018060200180602001848103845287818151815260200191508051906020019080838360005b83811015611f8f578082015181840152602081019050611f74565b50505050905090810190601f168015611fbc5780820380516001836020036101000a031916815260200191505b50848103835286818151815260200191508051906020019080838360005b83811015611ff5578082015181840152602081019050611fda565b50505050905090810190601f1680156120225780820380516001836020036101000a031916815260200191505b50848103825285818151815260200191508051906020019080838360005b8381101561205b578082015181840152602081019050612040565b50505050905090810190601f1680156120885780820380516001836020036101000a031916815260200191505b5096505050505050506040516020818303038152906040528051906020012090509392505050565b828054600181600116156101000203166002900490600052602060002090601f016020900481019282601f106120f157805160ff191683800117855561211f565b8280016001018555821561211f579182015b8281111561211e578251825591602001919060010190612103565b5b50905061212c9190612183565b5090565b8260028101928215612172579160200282015b828111156121715782518290805190602001906121619291906121a8565b5091602001919060010190612143565b5b50905061217f9190612228565b5090565b6121a591905b808211156121a1576000816000905550600101612189565b5090565b90565b828054600181600116156101000203166002900490600052602060002090601f016020900481019282601f106121e957805160ff1916838001178555612217565b82800160010185558215612217579182015b828111156122165782518255916020019190600101906121fb565b5b5090506122249190612183565b5090565b61225191905b8082111561224d57600081816122449190612254565b5060010161222e565b5090565b90565b50805460018160011615610100020316600290046000825580601f1061227a5750612299565b601f0160209004906000526020600020908101906122989190612183565b5b5056fea165627a7a723058202e83258b40167cbb93291852505effac6c49a96d090943b9b6a7d6f369e73c4e0029",
  "source": "pragma solidity >=0.4.22 < 0.6.0;\nimport \"./verifier.sol\";\ncontract Auction{\n    //Verifier Contract\n    Verifier public verifierContractZoKrates;\n    \n    //Variables needed for the auction\n    uint public auctionStartingDate; //Variable que indica el momento inicial en el que se permiten pujas\n    uint public auctionEndingDate; //Variable que indica el momento final en el que ya no se admiten pujas\n    uint public provingBidsStartingDate;//Variable que indica el momento en el que se permiten cotejar pujas\n    uint public provingBidsEndingDate;//Variable que indica el momento final para cotejar pujas\n    uint public minBid; //Signal for bidding\n    uint public idAuction; //Id de la subasta\n    uint public numberOfBidders; //Numero fijo de participantes en la subasta\n    address payable public beneficiary; //Beneficiario del objeto subastado\n    address public auctioneer; //Address del auctioneer\n    address public winner; //Address del Winner\n    bool public auctionEnded; //Variable que indica si la subasta ha finalizado\n    //address payable public verifierContractAddress;\n    \n    //Array que contiene las apuestas + salts\n    mapping(string => address payable) bidsAddresses; //Mapping con el que obtienes las direcciones de las codificaciones\n    bytes32[] public bids; //array que contiene las apuestas hasheadas\n    string[] public bidAmounts; //Array que contiene las cantidades encryptadas con la clave publica pero sin hash\n    string[2][] public hashZokratesBids; //Array que contiene los hashes de la apuesta obtenidos con Zokrates\n    uint public biggestBid;\n\n\n\n    constructor(uint _auctionStartingDate, uint _auctionEndingDate, uint _minBid, uint _idAuction, uint _numberOfBidders, address payable _beneficiary, address payable _auctioneer,address payable _verifierContractAddress) public {\n        //Determinamos todos estos datos al crear el contrato\n        auctionStartingDate = _auctionStartingDate; //Inicio de la fecha para apostar\n        auctionEndingDate = _auctionEndingDate; //Fin de la fecha para apostar\n        provingBidsStartingDate = _auctionStartingDate + 600; //600 son 10 mins despues de la fecha establecida\n        provingBidsEndingDate = _auctionEndingDate + 600;\n        minBid = _minBid * 1e18; //Apuesta minima\n        idAuction = _idAuction; //Id of the auction\n        beneficiary = _beneficiary; //Beneficiary of the auction\n        auctioneer = _auctioneer; //Auctioneer\n        numberOfBidders = _numberOfBidders; //Number of bidders\n        verifierContractZoKrates = Verifier(_verifierContractAddress);//Initialization of the verifier contract\n        //bids = new bytes32[](numberOfBidders); //array que contiene las apuestas hasheadas\n        //bidAmounts = new string[](numberOfBidders); //Array que contiene las cantidades encryptadas con la clave publica pero sin hash\n        //hashZokratesBids = new string[2][](numberOfBidders); //Array que contiene los hashes de la apuesta obtenidos con Zokrates\n    }\n\n    //Realizacion de la puja en el intervalo de la subasta\n    //Tiene que poner que solo un usuario, que todos los valores de los hashes sean diferentes\n    //En el javascript se pueden concatenar facilmente los numeros de Zokrates, y se mete como hashedEncryptedBid, donde se introducen juntos (out1, out2), y adems un salt\n    //OJO, para comprobar la minima apuesta, hacerlo con el javascript porque en este caso no interesa meter el valor a pelo.\n    //Poner la restriccion de numero de bidders\n    function bid(bytes32 hashedEncryptedBid) public payable{\n        require(msg.sender != auctioneer, \"Auctioneer cant bid\");\n        require(now >= auctionStartingDate && now <= auctionEndingDate, \"You only can bid during the bidding period\");\n        require(msg.value==minBid, \"You have to pay signal for bidding\");\n        //require(bids[numberOfBidders-1] != \"0x0\", \"All the possible bids has been done, no more bids can be done\");\n        bids.push(hashedEncryptedBid);\n    }\n    \n    //Funcion para encriptar la apuesta cifrada con la clave publica y el hash obtenido con zokrates. Esta funcion se usa en bidprover\n    function keccak256Hash(string memory encrypted, string memory hashZokrates1, string memory hashZokrates2) public pure returns (bytes32 hashSolidity){\n        return keccak256(abi.encode(bytes(encrypted), bytes(hashZokrates1), bytes(hashZokrates2)));\n    }\n\n    //Funcion que compara el hash inicial que contiene la apuesta encriptada con la clave publica y los hashes emitidos con zokrates\n    function bidProver(bytes32 bidHashedSent, string memory encryptedBid, string memory hashZokrates1, string memory hashZokrates2) public payable{\n        //Tengo que meterle la restriccion del segundo periodo, despues de que no se permitan mas pujas\n        //require(now >= provingBidsStartingDate && now <= provingBidsStartingDate, \"You only can prove that you have bid during the proving period, after bidding period\");\n        //require(bids[numberOfBidders-1] != \"0x0\", \"All the bids have been proved\");\n        \n        for (uint i=0; i<bids.length; i++) {\n            if (bids[i] == bidHashedSent) {\n                //Si los hashes de cada elemento del primer array coinciden con l\n                \n                require(bidHashedSent == keccak256Hash(encryptedBid, hashZokrates1, hashZokrates2), \"The hashed bid sent does not correspond to hash of the values you are providing\");\n                //This user knows the information sent, then execute the transaction of the other Contract\n                //bool result = verifierContractZoKrates.verifyTx(a, b, c, input);\n                //Capture event from this verifyTx call: If success, add the values of the response or the values entered into array for checking which is the biggest one, return the money and receive all the amount from the winner\n                //Capturamos este evento en el Javascript. Si devuelve true, ejecutamos la funcion de que introduce la puja para la subasta.\n                \n                    //lo que quiero hacer ahora es crear un nuevo uint que una los 4 valores de la puja, para obtener un uint que sea unico.\n                    //uint bidAfterProof = input[0] * 1000 + input[1] *100 + input[2] *10 + input[3];\n                //Rellenas el array de apuestas encriptadas con clave publica\n                \n                bidAmounts.push(encryptedBid);\n                //Rellenas el array de hashes de zokrates\n                hashZokratesBids.push([hashZokrates1, hashZokrates2]);\n                \n                //Introduzco la direccion y la relaciono con la apuesta encriptada con la clave publica\n                bidsAddresses[encryptedBid] = msg.sender;\n                delete bids[i];\n                break;\n            }\n        }  \n    }\n    \n    //Funcion donde el auctioneer aporta su prueba y muestra el ganador. El resultado se tiene que obtener en el javascript y se debe ejecutar posteriormente,\n    //En esta funcion hay que jugar con el javascript, obtener el return que devuelve y lanzar una funcion con estos valores\n    event resultPosition(uint256 positionEvent);\n    event resultWinner(uint256 winnerEvent);\n    function auctionEnd(uint[2] memory a,\n            uint[2][2] memory b,\n            uint[2] memory c,\n            uint[14] memory input) public payable returns (uint position, uint highestBid){\n        //Poner un require de que solo entre el auctioner\n        //require(now >= provingBidsEndingDate, \"The auction has not ended\");\n        //require(auctionEnded == false, \"The auction has ended\");\n        //require(winner == address(0), \"There is already a winner\");\n        //Getting the winner\n        //ITERAR AHORA SOBRE EL ARRAY DE BIDS Y OBTENER EL MAXIMO, Y SACAR LA ADDRESS.\n        //Hacerlo luego con la modificacion de las variables e implementar zk-snarks.\n\n        //Compruebo si la solucion proporcionada por el auctioneer es correcta o no.\n        bool result = verifierContractZoKrates.verifyTx(a, b, c, input);\n        require(result, \"Incorrect proof\");\n        emit resultPosition(input[12]);\n        emit resultWinner(input[13]);\n        biggestBid = input[8];\n        return (input[12], input[13]);\n        //winner = bidsAddresses[largest];\n    }\n\n    function returnSignals() public payable{\n        //Return money with these lines\n        for (uint i = 0; i < bidAmounts.length; i++){\n            bidsAddresses[getBidAmounts(i)].transfer(minBid);\n        }\n    }\n\n    //Esta operacion solo puede ejecutarla el winner\n    function paymentOperations(uint position, uint highestBid) public payable{\n        require(msg.sender == bidsAddresses[bidAmounts[position]], \"You are trying to call this function but you are not the winner\");\n        //Si llama otro, dar error. Puede servir para comprobar si eres ganador o no.\n        require(msg.value == highestBid, \"You have to pay the bid you promised for obtaining your profits\");\n        require(auctionEnded == false, \"The auction has already ended and the profits are being sent\");\n        //Payment to the beneficiary\n\n        beneficiary.transfer(msg.value);\n        //bidsAddresses[bidAmounts[position]].transfer(highestBid);\n        //Return of payment for people who has paid money for bidding\n        //delete bidAmounts[position];\n        //Return money paid by all the bidders\n        /*for (uint i = 0; i < bidAmounts.length; i++){\n            bidsAddresses[bidAmounts[i]].transfer(minBid);\n        }\n        delete bidAmounts;*/\n        auctionEnded = true;\n\n    }\n\n    /*function returnPayments() public payable{\n        //Return money paid by all the bidders\n        for (uint i = 0; i < bidAmounts.length; i++){\n            bidsAddresses[bidAmounts[i]].transfer(minBid);\n        }\n        delete bidAmounts;\n\n    }*/\n\n    function getBids(uint i) public returns(bytes32 position){\n        return bids[i];\n    }\n\n    function getBidAmounts(uint i) public returns(string memory encryptedAmount){\n        return bidAmounts[i];\n    }\n\n    function getHashesZokrates(uint i) public returns(string memory hashZok1, string memory hashZok2){\n        return (hashZokratesBids[i][0], hashZokratesBids[i][1]);\n    }\n    \n    function getBiggestBid() public returns (uint winnerBid){\n        return biggestBid;\n    }\n\n    //Ahora con estos nmeros, tras acabar la subasta, el usuario tiene que demostrar que realmente es l, introduciendo los valores fuera del hash.\n    //Con otro intervalo de tiempo, para que todo el mundo meta lo que ha apostado (demuestre)\n    //Una vez demostrado, el auctioneer ejecuta la prueba con los valores introducidos en Zokrates con el contrato generado, y si funciona correctamente, el valor devuelto de su apuesta aparece encriptado con la privada\n    //Tras finalizar la subasta, se tiene que permitir subir el cifrado con la secret, el cual se puede descifrar con la public de este Smart Contract\n    //Ahora toca subir el cifrado con la Sk, tras haber conseguido obtener este valor con Zokrates\n\n}",
  "sourcePath": "/home/eloy/Documents/Auctions-zk-SNARKS/contracts/auction.sol",
  "compiler": {
    "name": "solc",
    "version": "0.5.0+commit.1d4f565a.Emscripten.clang"
  },
  "schemaVersion": "3.0.2",
  "updatedAt": "2019-07-29T20:27:37.969Z",
  "devdoc": {
    "methods": {}
  },
  "userdoc": {
    "methods": {}
  }
}